:0200000407FCF7
:100000006087FC072501FC072D01FC074501FC0763
:1000100000000000000000000000000000000000E0
:100020000000000000000000000000005D01FC076F
:1000300000000000000000005F01FC07D922FC075F
:10004000C932FC076133FC07A526F0078123FC07B2
:100050001D31FC076301FC077920FC076301FC07E5
:100060006134FC076301FC070119FC070B19FC074D
:100070001519FC071F19FC072919FC076301FC0768
:100080009519FC076301FC076301FC076301FC078A
:100090006301FC076301FC076301FC076301FC07C4
:0800A000000000008E070E00B5
:0200000407FCF7
:100110000348854606F0B2FD00480047A901FC07E8
:100120006087FC070F4880470F480047042071464E
:10013000084203D0EFF309800C490847EFF3088029
:100140000A49084704207146084203D0EFF30980AA
:1001500007490847EFF3088005490847FEE7FEE72F
:10016000FEE7FEE7116EFC071101FC07356DFC0789
:10017000AD6CFC0770B50C460546064E3046114680
:1001800002F0B4F9A2B201233046294602F048FA3F
:1001900070BDC0460011005080B5024802F088FAD8
:1001A00080BDC0460011005086B0684868490818F4
:1001B000684940188008401E019000F09BFC012710
:1001C0003802029005200507DF4C049728890006B5
:1001D00020D56148006800041CD4F4480088C0079A
:1001E00018D15DF70AF90024204600F0D1FA5B48E7
:1001F000007804280BD1012000F0CAFA059405A864
:1002000004214DF79BFC002801D000F03BFB60F778
:1002100087FDCD4C72B603F05DF9EB4909780129F1
:1002200001D0032100E00221042800D00146881EED
:10023000022812D2288A042318432882C34A10684D
:10024000184310602088B8432080688A02290393ED
:1002500007D11021884368822EE0012970D130BF78
:100260006EE0102630436882688A1843688202F084
:10027000D7FA688A30436882019839490860EFF3F9
:10028000108087F3108829888022914329800028D4
:1002900002D087F3108802E0002080F31088688D78
:1002A0000299084208D002F0B5FA0B2001F02AF8B2
:1002B000A849C88D3843C88500202883688D0299D5
:1002C000084206D1A34A10884021014320208143DF
:1002D0001180208B402630432027B8432083A88CF0
:1002E000049CA043A8840D2006F0B8FC6889204334
:1002F00002218843688168894006FCD532206880E5
:10030000A88AC00602D508208949088030BFA88A7B
:10031000C0068D4C02D50820854948808D4A10883A
:100320003843F14308401080208B38430840208335
:1003300005F018FC85490868039A90430860049FFB
:1003400062B6C8200749088040E7C046E078000050
:100350001001FC07030004F830000040858DFC0705
:100360002000F4070031005070477047B0B50C46CC
:100370000025202D04D042F7C2FA60556D1CF8E725
:100380000020B0BD80B560F7F7FD80BDF8B56946C7
:10039000C870020A8A70020C4A70000E0870084683
:1003A00060F7D2FD8FBD70477047C046054988424F
:1003B00000D000BE04480188044A11408918091D74
:1003C000018070471111111112000050FC7F0000D4
:1003D00006480178002902D0802141707047044806
:1003E0000021C170034801707047C046CA8BFC07EA
:1003F00054BAFC07B4BAFC070A490A78002A03D0A9
:1004000000280AD17E2009E0074A0121D170002886
:1004100000D002210548017070477D20C04348701C
:100420007047C046CA8BFC0754BAFC07B4BAFC0735
:10043000F0B585B000AC0EC43D49082204920A8094
:1004400072B63C4CA18904252943A181A188802250
:100450009143A180A288402103910A43A280364A99
:1004600015802288354B134023800022D243344B21
:100470001A60228AD206FCD4E289324B1340E3810F
:100480000123DA43304FBE881640BE802F4E3168BC
:1004900029433160A18A0326B1430143A182A08A86
:1004A0000C218843009989000143A182A08A302150
:1004B0008843019909010143A182A0891843A081C1
:1004C00038881040029940183880B88A2049014085
:1004D0000720C0020818B8829803B98A0143B9827C
:1004E000E18C1C480288C90506D460210A430280B9
:1004F000B88A3043039C08E020210A43039CA243AE
:100500000280B98A022008439843B882B88A0499C5
:100510000843B882B88AA843B882388B2043202188
:100520008843388300BF00BF00BF30BF05B0F0BDB7
:10053000003300500400005000020050FFF700009C
:1005400080E200E07FFE00000C03005010ED00E0B0
:10055000FFC300005200005002280FD0012807D02E
:10056000002811D110480178002917D080210AE015
:100570000D480178002908D0812104E00A4801785B
:10058000002905D08221417070470848012107E009
:1005900006480121C1700648022103E003480021FA
:1005A000C170034801707047CA8BFC0754BAFC073E
:1005B000B4BAFC07044801784A1E5042504102294F
:1005C00000D108467047C046B4BAFC07104881788D
:1005D000002904D0491E8170090600D07047417877
:1005E000002904D0002242700322114003E0017868
:1005F0000029F3D0491E00220270481EC0B2012813
:10060000ECD804480122C270034801707047C0460C
:10061000CA8BFC0754BAFC07B4BAFC070B488178B4
:10062000491C81700178002900D0704708490023D7
:10063000CB7008490A780B70012A01D0012100E033
:100640000221022A00D1032101707047CA8BFC07E6
:1006500054BAFC07B4BAFC07014801210170704785
:10066000C98BFC070148002101707047C98BFC074A
:10067000014800787047C046C98BFC0710B5EFF3FE
:100680001082012080F3108809490B8880211940CD
:1006900003D1084B1C8804431C80002A02D080F33D
:1006A000108802E0002080F310884842484110BDC5
:1006B0000800005008330050014800787047C046D9
:1006C000858DFC07B0B52548018830229143018013
:1006D000018880220A430280018808221143018098
:1006E000038B01218B43038343881824A343438056
:1006F000048840231C43048004890425AC430481FE
:100700008489A407FCD5C48B154D25400B242402F5
:100710002C19C483C48B0C43C48344881443102213
:1007200094434480428B8A4342830E4AAA24146035
:1007300002889A43028008028A0713688343136081
:100740003F204002084A136883434803181810608A
:100750004805116801431160B0BDC0460800005053
:10076000FFF00000D48BFC070002004006494880DF
:100770000888032202430A800888042202430A8070
:10078000024801210170704700160050008CFC07E0
:10079000B0B5134D2978002921D01249002803D083
:1007A00008884007FCD402E00888400717D40023DB
:1007B0002B70C8888988000444181F2040064921EE
:1007C000224662F74DFE64224243120C064B6343FD
:1007D0009B0B5B1C5B08AA61EB6128626962B0BD80
:1007E000008CFC070016005011110100F8B56420C0
:1007F00013490E5A134FBC693046604312494018E2
:1008000012495EF7FFFB0546B8803C3666430E484A
:1008100030180E495EF7F6FB021D0D49A818C01DE1
:100820000A6048600B4A1278022A01D111304860F0
:1008300000F098F80849401880B25CF76FFEF8BDE8
:10084000308CFC07008CFC0720A1070040420F0001
:10085000147FFC07B4BAFC07E204000080B5044929
:10086000896941430348081803495EF7CBFB80BD03
:10087000008CFC0720A1070040420F0080B500F06B
:1008800071F880BDF0B587B028480121016001688A
:100890000029FCD126480068264DA968884201D26B
:1008A0000021A960411ACA0923490978182A33D9B5
:1008B000C90733D1A860214E308803907788B0886B
:1008C0000290F0880190002005901D48049004A833
:1008D00001F0D8F901F07AFC01F0A4FC01F030FC41
:1008E000044601F083FC68787F280CD0201A41B2BE
:1008F000C9114840401A40B2082805DBE868401C8E
:10090000E86003F02DF86C7077800298B080019851
:10091000F0800398308006E0C80704D0E868401CE7
:10092000E86003F01DF807B0F0BDC046FC000040D1
:100930001C000040008CFC07988DFC07001500503F
:100940000104000080B5044989694143034808183F
:1009500003495EF757FB80BD008CFC0720A1070010
:1009600040420F0080B50246C00B09D00748C0695D
:1009700000210B465EF770FB8905800A401880BD98
:100980000248C0694243900A80BDC046008CFC0703
:100990000A49887801280ED1094A0120106013689D
:1009A000002BFCD1074A1268074B1B689A4201D3FF
:1009B00000208870704700207047C046008CFC07FC
:1009C000FC0000401C000040EC79FC070020704750
:1009D00080B5064800210160FFF708FF0120C0072D
:1009E00003490A6882430A6080BDC046A8B9FC0773
:1009F00030000040002805D00748C188806948437E
:100A0000C00B01E00448C0883F210840034A138816
:100A10008B43C01810807047008CFC070001005009
:100A2000B0B54001074A84184B001B1903252D025D
:100A30009D8001258D4085522F2006F00FF965809D
:100A4000B0BDC0460230005070B504461048048066
:100A5000104D688B0126B04368830D2006F0FEF828
:100A60002888304302218843288028884006FCD506
:100A70002846083804807D20C00006F0EFF828885A
:100A800003218843288028880006FCD570BDC04615
:100A9000D08BFC070A0000500B48018880220A43D3
:100AA0004021C9430A400280428BFF239A4342837C
:100AB000428C04231343182293434384428CA02383
:100AC00013430B40438470471600005006480188CA
:100AD000064A0A400721C9025118018004480188CA
:100AE00008220A430280704720030050FFC3000021
:100AF00052000050F0B585B06F48C82102910180C6
:100B0000002545806D480826068000F091FC6C4F5A
:100B1000388804AC20802088C046C0462088042243
:100B2000D14308420095039201D03D8003E0B8898B
:100B300001218843B881FFF7C9FF6248C28D0621B1
:100B40008A43C2850124A203BB8B1343BB83028863
:100B50005D4B1340038042880A43B2434280052123
:100B60000D076A8D594BFF33C18D1940D20501968F
:100B70001AD40F22120303235B021943C185C18DCE
:100B80001143C185B98BB143B983B98B0422914319
:100B9000B98341884F4A0A404280C18D2143C185B3
:100BA000698D4907FCD516E0A2021143C185C18DAC
:100BB000474A0A40E1035118C185B98B3143B983D3
:100BC000B98B039A9143B983C18DA143C185B98B78
:100BD00040229143B983B98B03220A43BA83018827
:100BE000202211434023DB43194001803A4884709E
:100BF000388C104318403884FFF74EFF3748039E67
:100C00000680A88836490140A9802004354908603B
:100C100001F006FE022001F053FE334F3868C1B2E6
:100C20000C20AA29014600D031462A888243881820
:100C30002880C046C046284D2846103000F004FBEE
:100C400000F04CF966202949085AFFF7FDFE7F2085
:100C50006870B8692649086001F03EFF00F04CF862
:100C600004F080FFFFF72EFD01F0EEFA82480068E5
:100C700041F7F0FA1F4800990171C1702002A107E5
:100C80000A6802430A601E20FFF770FD2046FFF746
:100C90007FFDFFF79DFB03F0C7FD05F097F8FFF719
:100CA00097FE052005F086FF03480299018003485E
:100CB0000199018005B0F0BD0031005002330050B1
:100CC0000403005052000050FFBF000000F0FFFF7F
:100CD000FF0F0000FFF90000008CFC07000200502D
:100CE000FFF7000080E200E0D07FF807308CFC07BF
:100CF0004C80FC0754BAFC0770B530480068304996
:100D000088424FD1314C324920465EF70EFA072512
:100D1000290230485EF709FA05F05AFD2E482F499E
:100D200001602F482F4930225EF7E6F92E48002651
:100D3000C671867146710671C670867046703F2115
:100D400001702A482AA140225EF7D6F93848067079
:100D500038483949016039483949016039483A49C8
:100D600001603A480A210170394806703948322139
:100D70000170394805210160384801220260384875
:100D8000016038480621016037480560374808216E
:100D900001608320400036490860364908603648C3
:100DA000046070BD00200749074A05235B02984292
:100DB000A8D843588350001DF7E7C0469CB8FC07ED
:100DC0006587341200B0FC07388FFC0700A0FC07D1
:100DD000AC14000000B9FC0760BAFC07F474FC070F
:100DE00000BAFC077CFCF107DAB9FC07B0BCFC07D1
:100DF0002000800000C000000000840000002822C5
:100E0000000000000000040000F7FFFF7F0000006A
:100E100030F0FF0F000000000004000000000000A0
:100E200000000000000000000000000000000000C2
:100E3000FDB9FC0750B9FC07603FF20754B9FC0745
:100E40009C76FC0758B9FC076C75FC07B0B9FC0729
:100E5000B1B9FC07D9B9FC075CB9FC0760B9FC075C
:100E600064B9FC0768B9FC076CB9FC0770B9FC07EA
:100E700048B9FC0744B9FC074CB9FC0710B5094850
:100E800000210180084809A118225EF735F90DA05C
:100E90000F491CC81CC105F094FC0E480E490160A6
:100EA00010BDC046288CFC0720000840F99DF007C3
:100EB00000000000E3A1F107000000004FA4F107CB
:100EC00000000000F161FC071F65FC072F66FC07AE
:100ED000C000FC070000084007001000F0B589B012
:100EE0006824A3480025055301263046C046C04665
:100EF000A048001F0068A049884200D0F2E0039596
:100F000004940F2005070420029605950746994A88
:100F10001118081FEC32904200D3E5E000680890F9
:100F2000089B2B4009200407089AA34226D1089B5E
:100F30001C0AE5B2D2B2921F112A00D9A5E0C04620
:100F40007A441279520097440858A0A0A0A0A0A00B
:100F5000A0A0A07A8DA552A06C71854E0498305C3B
:100F6000C0003018AA005EF7C7F80499705C001939
:100F70007054C0B2052852D300BE50E0900F10D07C
:100F80000898804988420CD8384608307C4B19466E
:100F90002631089A8A4221D1764979587B4A518074
:100FA000B4E70898284007210907884203D10020A8
:100FB000C046C04610E008982840F10788420BD090
:100FC0000898284005214907884205D008982840FC
:100FD00003214907884274D1381D97E7089999423F
:100FE00065D1644979586622614B99528EE7614810
:100FF000385862215E4A505247E05D4E69200190A8
:10100000305CC00030181030AA005EF775F8019906
:10101000705C00197054C0B20D2800D300BE029E4F
:1010200033E054483858524908652EE05148385842
:1010300064214F4A5052000427D100BE25E04D4A9A
:10104000B9584843BA58120C801A00B2C008562347
:10105000474CE052501A8108484A11400818401C79
:10106000542111E0434AB9584843BA58120C801A27
:1010700000B2C0085A233E4CE052501A81083F4A41
:1010800011400818401C58216052A8003818001D53
:10109000059D3BE7039CA00006AA1018AA005EF776
:1010A0002BF82C190394032CEFD300BEEDE719465F
:1010B0002231089A8A420AD12E497958334A9180BE
:1010C00024E70898401C0FD000BE38461EE719469A
:1010D0001E31089A8A4200D018E7264979582B4ACF
:1010E000D18013E7FF203FE05C200699204C21527D
:1010F0000920079948430A0C801A00B2C0086023EF
:10110000E052501A81081D4A11400818401C5E2107
:101110006052049AA05CC10702D000BE1448805CF3
:101120004008134988546920095CCA0702D000BEF0
:101130000F49095C49080E4A11546420115A0029CC
:1011400002D17D21C900115266210948425A00206E
:10115000002A09D10C4A1268D2B2AA2A01D06E2202
:1011600000E08022024B5A5240B209B0F0BDC046A6
:10117000308CFC07D47EF807A5A5A5A5FF3F00008D
:10118000020000504C420050D07FF807A000FC073E
:10119000F8B56824134D295D0026134F8E4220D2E6
:1011A0002A68BA4218D16868C001400C3A4613D088
:1011B00002F0FEFF0B49095D2A680A280CD30320C0
:1011C00000026B6818401B049B0E18181060E8881A
:1011D000064A1040064A00E0686810600835761C30
:1011E000DCE7F8BD308CFC074C100040FF0100002C
:1011F0005880FC07F8B569240F4E315D1036002782
:101200000E4D8F4216D23268AA420ED102F0D0FFA4
:101210000949095D32680A2807D373680848034002
:10122000084800684004184300E070681060083601
:101230007F1CE6E7F8BDC046308CFC073830004024
:10124000FFFF01FC5880FC0780B5024906225DF7CC
:1012500053FF80BDD47FF8070520000701883022A6
:101260000A430280018803220A4302807047052056
:1012700000070188302291430180018803229143B5
:101280000180704703490A88034B1340000218434A
:101290000880704738300050FFFC000006490A887B
:1012A000064B13400B8006490A8808239A43C0075F
:1012B000000F10180880704752000050FFEF000028
:1012C0002003005006490A88064B13400B8006494C
:1012D0000A8804239A43C007400F101808807047FB
:1012E00052000050FFFD0000200300500448018818
:1012F000890918220A4000888004400F801870472E
:101300005400005008490A88084B1340F822024054
:1013100092011A430A800A88054B13404007800C4B
:10132000181808807047C04654000050FFF90000AC
:10133000FFC7000010B5114C204628380088C005B2
:101340000CD42088402101432020814321800D4876
:101350000188012291430180002004E001F054FA49
:10136000002802D0FF2040B210BD2088C004EED477
:10137000034800880007EAD4FC20F4E7520000503C
:101380002003005080000050B0B50446124D28885C
:10139000C00501D4FE201DE001F036FA002805D07A
:1013A000FFF7A4FF844201D2FF2013E0288DC00480
:1013B00008D40A480088072C04D80821084001D125
:1013C000FB2007E00648012141700470204600F030
:1013D00009F8002040B2B0BD2A00005020030050A0
:1013E0005080FC0780B5FFF78DFF0548018801227A
:1013F0000A430280034801884907FCD580BDC046E6
:10140000800000502A00005010B5084C2188C90502
:1014100009D4FFF7E7FF208D2021014340208143BD
:101420002185002000E0FD2040B210BD2A000050C0
:101430001CB500202C4C01900198002812DC0020E3
:101440000090009901980B290ADC30214143601873
:10145000009989004018002181600098401CEFE746
:10146000401CE8E704F0A6FA0020606020600190CC
:101470000198002837DC0020009000980B282FDC12
:10148000009801990B282BD830200199414361180D
:10149000009A920089188968491C00D100BE019900
:1014A00041436118009A920089188968002914D074
:1014B0000199484320180099890040188068C11795
:1014C000009A5DF75DFE019A12015DF759FE6268B0
:1014D0000A4321686260014321600098401CCBE709
:1014E0000198401CC3E71CBDB88CFC07F8B51D462D
:1014F00014460F460646012000213A465DF740FE9D
:1015000032015DF73DFE074A53680B401168014008
:10151000194300D100BE2C4378007101081802491C
:101520004452F8BDB88CFC07063000504900400119
:1015300040180249415A1F200840704706300050A9
:10154000F8B51C4615460E460746012000213246D6
:101550005DF716FE3A015DF713FE0D4A53680B4026
:10156000116801401943069800D100BE002804D03C
:101570003846314600F00EF803E03846314600F0B8
:1015800027F8384631462A462346FFF7AFFFF8BD15
:10159000B88CFC0770B50D46044601260021304684
:1015A0002A465DF7EDFD22015DF7EAFD064A536824
:1015B0000B4011680140194300D100BEAE406001EC
:1015C0000249465270BDC046B88CFC07023000503C
:1015D00070B50D4604460126002130462A465DF7C7
:1015E000CFFD22015DF7CCFD064A53680B40116820
:1015F0000140194300D100BEAE406001024946528D
:1016000070BDC046B88CFC0704300050F8B51446D5
:101610000E46074601250021284632465DF7B0FDFB
:101620003A015DF7ADFD084A53680B40116801406F
:10163000194300D100BEB440B54004480188A94315
:1016400021430180F8BDC046B88CFC071E30005015
:1016500070B50C46064601250021284622465DF756
:101660008FFD32015DF78CFD064A53680B4011680F
:101670000140194300D100BE70010349405AE040C7
:10168000284070BDB88CFC07003000500C2901D3F5
:10169000002200E0012241424141114008467047CA
:1016A000F0B587B0039314460A4606460120002190
:1016B000059004925DF764FD32015DF761FD364AE5
:1016C00053680B401168014019430D9E0C9802901D
:1016D00000D100BE701E3746874120460A3801906F
:1016E00040258540A8B22D4906940C882C4988478E
:1016F0008740AC433C43294F3C803C883F20844397
:10170000274DA8472946864026433E802020019D3C
:10171000A840BC88844380B2884702998140214315
:10172000B980059E3046A840BC88844380B21C49DD
:101730008847039981402143B9806800C4190C3C53
:1017400025880F208543164988470499491C814004
:1017500029432180069C002C354605D403202146D0
:1017600081431148081803E00C2020400D4940181F
:10177000A107C90E80228A40FF238B40016899434C
:1017800011430160002C04D41F200440A5400748E9
:10179000056007B0F0BDC046B88CFC070C140050C3
:1017A000B117FC0714ED00E000E400E000E100E008
:1017B00000280AD006494218521C424000200A4222
:1017C00004D0401C520892B2F9E7102080B2704752
:1017D000FEFF01000A38012319468140204A128881
:1017E00000281DD0880736D448071BD408071BD40F
:1017F000C8061BD488061BD448061BD408061BD475
:10180000C8051BD488051BD448051BD408051BD468
:10181000C8041BD488041BD448041BD50E231AE02B
:10182000002318E0022316E0032314E0042312E04F
:10183000052310E006230EE007230CE008230AE04E
:10184000092308E00A2306E00B2304E00C2302E04E
:101850000D2300E00F231140D940C8B27047C046A5
:101860001014005070B50C460A3801218140054D16
:101870002E888E4388B2FFF79BFF844034432C8030
:1018800070BDC0461014005070B50A3801242146BE
:101890008140054D2E888E4388B2FFF789FF844032
:1018A00034432C8070BDC0460E140050C0B20246B6
:1018B0000A3A042A04D88000024A801828380160B5
:1018C0007047C046A08CFC0710B504460A38C0B269
:1018D00004280FD82046FFF7D7FFA000064940187C
:1018E00028380068002801D0804710BD0120A040A2
:1018F0000249086010BDC046A08CFC0780E200E0F1
:1019000080B50A20FFF7E0FF80BD80B50B20FFF710
:10191000DBFF80BD80B50C20FFF7D6FF80BD80B512
:101920000D20FFF7D1FF80BD80B50E20FFF7CCFF63
:1019300080BDC04610B50B4C00280BD10B2909D82F
:10194000022A07D27F2003406380D0010818401C80
:10195000C0B204E07F20034000BE638000202080EE
:1019600010BDC04640000050014800210180704772
:10197000400000507F210140014801807047C0466F
:1019800042000050024801887F2008407047C0464E
:101990004200005010B5FFF76AFC23480188090592
:1019A00018D5224A118805230B40052B12D1108827
:1019B00004210843108010880123984310801C489C
:1019C0000368002B2ED00220105E515E0A24125FA5
:1019D000984710BD0188C90606D516498A88D207DE
:1019E00002D00A88120612D40088C0061AD51148FF
:1019F0008188890716D50188C90513D50221818000
:101A000001880D4A0A4002800948806807E00120E9
:101A10008880088880229043088005484068002814
:101A200000D0804710BDC0460400005000020050A6
:101A3000F08CFC0700010050FFFE000070B5124C56
:101A4000258810262E432680002A00D100BE0F4C88
:101A50000425A5803F252B402688AE43F31823801C
:101A6000A181511EC9B26180218880221143218049
:101A700020810748016811437F22914301600120C2
:101A800000040449086070BD0400005000010050CB
:101A900010E400E000E100E070B5134C258810264A
:101AA0002E432680002A00D100BE104C0825A580B8
:101AB0003F252B402688AE43F3182380E181511E39
:101AC000C9B2618001210A02238813432380608107
:101AD00007480268802313437F229343036008046E
:101AE0000449086070BDC046040000500001005069
:101AF00010E400E000E100E080B5054801218180AC
:101B0000018880229143018000F004F880BDC04626
:101B1000000100500B480188FF20C9070FD10A4976
:101B20000A8812060BD40988C90508D401200004CC
:101B300006490860BFF34F8FBFF36F8F002040B29C
:101B40007047C046000200500001005080E100E0F4
:101B500080B50548022181800188044A0A4002803C
:101B6000FFF7D8FF80BDC04600010050FFFE000017
:101B7000014948607047C046F08CFC070149886005
:101B80007047C046F08CFC07014908607047C046AA
:101B9000F08CFC070121C9020C4A13880B43138007
:101BA0008179C2790A430189114302880A43418835
:101BB000114382880A4306494A80064A0A804A88B5
:101BC00000234B804A804089088070470400005001
:101BD00006020050E703000080B50548002101809F
:101BE00000F00CF803480188034A0A40028080BDD7
:101BF0000802005004000050FFF7000080B50448C0
:101C00000188012291430180FFF784FF80BDC04617
:101C1000000200500A490A880A4B1340C0001818F5
:101C20000880088801221043088007480168802343
:101C30000B437F218B430360100404490860704705
:101C40000002005007F8000010E400E000E100E0AE
:101C5000B0B50A4802880121CB0204881C430480E5
:101C6000074C042525801A400388834C1C40A21889
:101C700002800804A5490860B0BDC04604000050B9
:101C800000020050FEB5514C002121800327FD01C8
:101C90002946903161804026A6805C224C498A5AB0
:101CA000A281A289324330239A43A281494A166015
:101CB000BFF34F8FBFF36F8F002800D181E00197F2
:101CC00002952288B2430578AB0113432380E7884D
:101CD00070229743437819013943E180002D05D1E3
:101CE000E1880725A9431B090B43E380C1784B1EFC
:101CF0009941890023880425AB430B432380017954
:101D00000902A388DBB25918A180E1881140324F43
:101D100040292DD162202E49085A002800D131488F
:101D200031490880012000032188014321801920C6
:101D300004F094FF029A10468030218801432180EC
:101D4000208830432080608828436080608827494D
:101D5000014061800F20400261880143618040376B
:101D6000608838401043608060880199884327E08C
:101D700021881A4A0A4022808178102900D300BEA7
:101D80006288174B13404902194361806188019AA8
:101D9000914342790A43628081790029029A01D1F4
:101DA0000A4600E080322188394011432180C07901
:101DB000082800D300BE40376188394080010843BD
:101DC00060802088012101432180FEBD0015005064
:101DD000308CFC0780E100E0FFFD0000FFEF000019
:101DE000FFE10000407600001C7FFC07FF1F0000A1
:101DF0000248018801220A43028070470015005002
:101E00000748012101802121090141804021818071
:101E100004480160BFF34F8FBFF36F8F7047C04618
:101E20000015005080E100E080B5044801880822D8
:101E30000A430280102004F011FF80BD02150050FB
:101E40000248018808229143018070470215005022
:101E500010B5084A1388084C1C40C002204310806B
:101E6000508830239843090101435180FFF7DCFF7C
:101E700010BDC04600150050FFF7000003490A8856
:101E800070239A43000110430880704706150050E4
:101E900003490A8807239A4302430A807047C046D1
:101EA0000615005009490A88202313430B8008496E
:101EB0000860FF20000407490A6882430120C0052A
:101EC0001018086004484021016070470015005058
:101ED000FC8CFC0704E400E000E100E0084840213D
:101EE0000160BFF34F8FBFF36F8F06480288202336
:101EF0009A4302800448002202600448016070474F
:101F000080E100E000150050FC8CFC0780E200E05E
:101F1000024801880122914301807047001500505A
:101F20000248018802220A430280704700150050CF
:101F30000548018802220A43028001888907FCD4EF
:101F40000121C181008A704700150050F0B585B0AD
:101F50000546424E7088000700D500BE30880490C8
:101F6000708803900020FFF78DFE708804210143E4
:101F7000718070883A49014001246202881870809B
:101F80003088384901403180270270883843C021A9
:101F900001437180308840218843A9010143318089
:101FA000308931490840801830817089084000929A
:101FB0008018708130888021014331803088B84397
:101FC0003080FFF7B5FF01950546308838433080F3
:101FD000A7023F2080020290AC09FFF7A9FF820907
:101FE0002249019B012B11D1630003204002C31A37
:101FF000BB4200D300BE3489029D2C401C43348177
:102000005200821ABA420ED300BE0CE03B1B3F2D99
:1020100000D800BE3489029D2C401C433481BA1A7A
:102020003F2800D800BE7089284010437081308856
:1020300008403080FFF77CFF81090E4A904202D8A9
:102040000098401A01E00A480818082800D300BE8A
:10205000049830800398708005B0F0BD00150050E2
:10206000FFE10000FFFD000000FCFFFFFFFE00009D
:1020700000FEFFFF3F80000080B504480121018081
:1020800003480068002800D0804780BD0E1500502E
:10209000FC8CFC07F8B51F4A1F490B881B0707D4A7
:1020A0008B1E1B8840241C4006D01346563305E087
:1020B000134660335E3206E013465A33002C01D0DB
:1020C000543200E058320026925F9C5F07239B0148
:1020D0000D881D409D4204D00988C905490F06237B
:1020E0005E1A00960D4F7843D51929465CF78AFF92
:1020F00006467C43204629465CF79AFF311AB942CE
:10210000084600D33846064A914200D9002000997B
:10211000C840F8BD308CFC0702150050FFFF0000DE
:10212000FEFF010080B50120000304490A88024334
:102130000A80192004F092FD80BDC04600150050B1
:1021400080B50748018802220A4302800188890776
:10215000FCD40121C181008A00F004F880BDC04692
:102160000015005080B50B490988401A7D21C9002F
:102170004143002804DC084A8918C017084001E0E0
:102180000648081806495CF753FF8009193040B229
:1021900080BDC0461C7FFC072BFDFFFFD502000061
:1021A000AA05000070B514460D46064606480121F2
:1021B0000180002D07D03088FFF7D4FF2070B61CB7
:1021C000641C6D1EF5E770BD0E15005004480188B3
:1021D000044A1140044B19804088104058807047D1
:1021E00008150050FF030000008DFC07B0B501206A
:1021F00080020A4B1C88A10A00D000BE3F218A023F
:1022000007490D88154025430D805B88834200D324
:1022100000BE4888104018434880B0BD008DFC07C0
:102220000815005006480188064A114001235B0248
:10223000C918018041881140C91841807047C046C3
:102240000815005000FCFFFFF8B519480068194E4A
:10225000B0422CD018480068184908601848016836
:10226000184801700A0EC2700A0C8270090A417087
:10227000072189010022144B00290AD0491ECC5C99
:102280009F5C03253D40455D65407D409D54521C4B
:10229000F2E7041D0C491C2220465EF7C1FE00280F
:1022A00000D000BE20465EF74FFE01480660F8BD34
:1022B0009CB8FC07658734124CB9FC070802004043
:1022C0004C80FC07007FFC07388FFC070149086041
:1022D0007047C046048DFC0780B50348006800289D
:1022E00000D0804780BDC046048DFC07B0B50E4AC3
:1022F000146801239C431460FF242406556825407C
:10230000401E28435060906820409060106802246E
:10231000A043490001431160106804218843106004
:10232000106818431060B0BD10E000E0FF20000608
:1023300004498A6802408A60086801229043086064
:102340007047C04610E000E080B50021FFF7CEFFE7
:1023500006480168C903FCD5FF21090682680A40C6
:102360008260016801229143016080BD10E000E0BD
:10237000FF200106014800688843704718E000E02C
:1023800070B52F4C2F4D304E40E0AA8CE88C904217
:102390002FD2296A904239D22289C0231340C02B00
:1023A00003D13288920703D430E0A28A92062DD559
:1023B000421CEA84085C2080AA8CE88CEAE72A6B3D
:1023C000002A23D0012105E02A6B002A1ED0A08A12
:1023D0009E2101402046904718E000F0F5F9A088C2
:1023E00001218843A080A96B00290FD0E88D884780
:1023F0000CE0A08802218843A080A0888021884327
:10240000A080696B002901D0A88C884720890F2102
:102410000140481E0B28F9D87844007940008744D1
:102420000D0C0B080B07060B0B0B0B05D5E7C6E7CE
:10243000CAE700F0C9F9E9E7E8E7A6E770BDC046DA
:1024400000110050088DFC077C11005010B5EFF30F
:102450001082012181F31088094B984201D040205D
:1024600000E08020074B1C8804431C80002A02D017
:1024700081F3108810BD002080F3108810BDC04685
:10248000001000500400005010B588220121815234
:10249000EFF3108281F310888023DB43084CA042C5
:1024A00000D04033074804881C400480002A02D032
:1024B00081F3108810BD002080F3108810BDC04645
:1024C000001000500400005010B5828980231A4388
:1024D0008281CAB2C02402538AB2120A0280090C55
:1024E000C9B2818081899943818110BD044A801AD3
:1024F000421E90414001034A101841617047C04696
:1025000000100050088DFC07044A801A421E9041BA
:102510004001034A101881617047C0460010005006
:10252000088DFC07044A801A421E90414001034A6C
:10253000101801617047C04600100050088DFC075C
:10254000FEB50C460546FFF781FF7C20285A2088FF
:10255000A178090441182846FFF7B6FFE0781F214B
:102560000140C008042202400A43AA8128467C3068
:10257000E178C9098183032166561D4B184610383E
:10258000002E21D52A469C32854216D17608202776
:1025900002973E4001961F88029EB743019EBE19D6
:1025A0001E80E6787609022702973E4001961F8832
:1025B000029EB743019EBE191E8023791B079B0F05
:1025C000138023790B409380281A411E88414001D3
:1025D00008490818A1680177E16801612169416132
:1025E0006169816121790907890F4177FEBDC04684
:1025F00010100050088DFC07828A9206FCD50180DD
:10260000704770B514460D460646200406D029785A
:102610003046FFF7F1FF641E6D1CF6E770BDC04643
:1026200070B5174D441B661EB4416401154E341934
:10263000A2800026E680012B04D0002B1ED1FFF7DC
:10264000E0FF70BD21600221A84201D10A4600E0EE
:102650000322012595400C4B1D60BFF34F8FBFF344
:102660006F8F83880B438380818880230B43838013
:10267000217F104600F00CF80448056070BDC0468C
:1026800000100050088DFC0780E100E000E100E050
:102690008007C00E8907090E8140FF22824003484F
:1026A000036893430B4303607047C04600E400E0B7
:1026B000818A4906FCD57047818AC907FCD0008809
:1026C000C0B2704770B514460D460646200406D0C9
:1026D0003046FFF7F1FF2870641E6D1CF6E770BDF1
:1026E00070B5174D441B661EB4416401154E341974
:1026F0000026E681A281A160012B04D0002B1DD110
:10270000FFF7E0FF70BDA84201D1022200E00322E2
:1027100001210D4695400C4B1D60BFF34F8FBFF359
:102720006F8F83880B438380818804230B438380CE
:10273000217F1046FFF7ACFF0448056070BDC0461E
:1027400000100050088DFC0780E100E000E100E08F
:1027500007490A46103A904200D070470888202264
:1027600002430A800888022202430A807047C0465A
:102770001010005010B50446481CA18A490602D525
:10278000A18A890602D4401EF7D118E00D480146FF
:1027900010398C4207D101882022914301800188A1
:1027A000022291430180FF200A3004F057FAA08AE8
:1027B000C00701D1012010BD2046FFF7C9FF00204E
:1027C00010BDC0461010005070B50D48C38D826A10
:1027D000848D0C49A34208D28D8AED070ED00D8856
:1027E0005E1CC685D5543346F4E78A8801239A4394
:1027F0008A80816B002901D0C08D884770BDC0469A
:10280000088DFC0700110050014800787047C04651
:10281000488DFC070148002101707047488DFC0776
:1028200070B5EFF31085012484F3108805200607A6
:10283000708DC00509D511480470FEF757FD104989
:10284000087010480088204048703088802101437B
:1028500031800D48016807229143016041684907B2
:10286000FCD5032000F012F8002D02D084F310886C
:1028700070BD002080F3108870BDC046488DFC07F5
:102880005080FC07800000500000F4070521090774
:102890000988090600D400BE800003A10858064933
:1028A00008600648486070470100990903009909CB
:1028B000070099090F0099091000F407090404A4FE
:1028C0007CB504460E4D28680726304001A90870E3
:1028D0000878844212D00B480088C00507D5A01E96
:1028E000C0B2042803D808A1085C00F011F82868D9
:1028F000B0432043286068684007FCD57CBDC046D3
:102900000000F4072A0000500B130B0B0B00000013
:1029100010B50446FEF7EAFC844202D92046FEF7D1
:10292000F1FC06480188C90707D1018801220A4342
:102930000280034801884907FCD510BD8000005083
:102940002A00005070B50D460446480B00D000BE6A
:10295000052000070088000600D400BE0320FFF712
:10296000AFFF0C48846045600168C907FCD00420B3
:10297000FFF7A6FFFF20C604AD00A859844207D187
:102980000520FFF79DFFA859211A4842484170BD14
:10299000002070BD0400F40710B50446400B00D0C1
:1029A00000BE052000070088000600D400BE0220FB
:1029B000FFF786FFFF20C004A100085810BDC046E5
:1029C00070B514460D46064605200007008800062F
:1029D00000D400BE2819401E400B00D000BE0320CA
:1029E000FFF76EFF00210848A14209D032688260DB
:1029F000456002689207FCD5491C6D1C361DF3E743
:102A00000168C907FCD070BD0400F407F8B514468E
:102A10000D460646052000070088000600D400BECB
:102A2000304629462246FFF7CBFF0423304629468D
:102A3000224600F011F8002700280BD0052330466D
:102A40002946224600F008F8002803D00320FFF7AB
:102A500037FF01273846F8BD70B514460E460546C7
:102A6000052000070088000600D400BE1846FFF7C6
:102A700027FFFF20C004B10009180020844207D0BE
:102A80000A682B68934203D1091D401C2D1DF5E7F0
:102A9000A04201D2002070BD012070BD70B5144667
:102AA0000E460546052000070088000600D400BE3B
:102AB0003019401E400B00D000BE0220FFF700FF7F
:102AC000FF20C004B1000818002C03D002C802C5C2
:102AD000641EF9E770BDC04670B5EFF310850124A0
:102AE00084F3108805200007028880210A430280B1
:102AF000144A13680726B343136053685B07FCD579
:102B0000114B1361114B536102888A430280408D3F
:102B1000C0050DD50E48002101700E4E3078FEF72D
:102B2000F1FB7078002803D10B480188A143018094
:102B3000002D02D084F3108870BD002080F310882F
:102B400070BDC0460000F4070F009909090404A4F1
:102B5000488DFC075080FC078000005070B5EFF3F3
:102B60001081012484F310882C4A138820251D43EA
:102B70001580002902D084F3108802E0002181F33F
:102B80001088274D2988A14329802988C907FCD1AD
:102B9000244900220A8602888A8242880A8382881F
:102BA0008A83C2880A840A8806239A43437A5B0090
:102BB00013430B80827B002A00D100BEC27B002A17
:102BC00000D100BE1F22D2438B8F1340867B761E1E
:102BD0001E438E870B8F1340C27B521E1A430A87F7
:102BE000817A012905D18289C17A007A00F020F822
:102BF00003E08189C07A00F03DF8288820432880CE
:102C00002888C007FCD00848016880220A437F2139
:102C10008A43026005481021016070BD0400005025
:102C20006C1300500013005004E400E000E100E0E9
:102C3000B0B50F4B1C88012525431D801C884025FD
:102C400025431D801C882025AC43012900D108465E
:102C5000400104431C8018881024A043090101434B
:102C600019803F2080029988014011439980B0BDAE
:102C70000013005010B50B4A13880124A34313809E
:102C800013884024A343138013880824A343C0005F
:102C9000184310803F208002138903400B431381A7
:102CA00010BDC04600130050064801880122914320
:102CB00001800188C907FCD1034801882022914383
:102CC000018070476C13005004000050FCB5019265
:102CD0005A0000931A43022717400024164D264637
:102CE0000A0417D0491E2A889207FCD58BB25A4293
:102CF0005A41002F01D13A4600E05202035D1343CE
:102D00000E4A1380641C761C2A8A002AE8D01C3DD7
:102D100028880AE000220098C00705D028884007CC
:102D2000FCD528888006FCD426460198002800D0CF
:102D30000280B0B2FCBDC0467013005010130050AA
:102D4000FFB5019203900220184000271C4E1D4D34
:102D500002970097029A93B28B4228D2BAB28A4263
:102D600011D2AA8B92070ED5012214027F1CBAB28F
:102D70008A4201D0224601E003221202002800D13B
:102D800022463280EAE78B42029300D802918B42BE
:102D900008D2AC8CA40604D03488039AD4545B1CAB
:102DA000F5E70293AB8D002BD4D0288800E0009B80
:102DB00001980028029900D0038088B204B0F0BDC9
:102DC0001013005054130050B0B50C4C0025A580D2
:102DD0002180214614310DC10498C1078A0F024396
:102DE00022620748828C002901D1502102E0018E25
:102DF00025210901018003486063B0BD4C8DFC07AB
:102E0000301300501D2EFC07024A1180024948630E
:102E10007047C046301300504C8DFC0770B541061A
:102E20001E4C1DD4800520D41D498B884A691D483D
:102E30000D889BB2AB4222D2A68BB6071FD55E1C73
:102E4000AE4201D0002504E00D6A02262E4075082E
:102E50006D02D35CEB1803808B885B1C8B80E7E7EB
:102E6000002000F06FF9208870BD0D48018880882F
:102E7000411A4842484100F065F9A08970BDAB4253
:102E800006D12022895CC90703D1012000F05AF93C
:102E900070BD018C10229143018470BD5413005009
:102EA0004C8DFC0710130050B0B5084C002525824E
:102EB000A5812181606204982063E362A2620448D4
:102EC00060630448818C54210180B0BD4C8DFC07A7
:102ED000D92EFC073013005070B54006184C18D49A
:102EE000184819490A890B8A934217D2A58BAD0756
:102EF00014D55D1C0D8201231B020E6BB60701D495
:102F00001E4601E003263602954200D01E4606808A
:102F1000E8E7002000F02EF9208870BD8B894D6A0B
:102F2000934207D2A68CB60604D00688EE545B1CEA
:102F30008B81F5E7934202D1012000F01BF970BDAF
:102F400054130050101300504C8DFC07B0B50022F4
:102F5000064B074C8A4206D21D88AD06FAD025885A
:102F60008554521CF6E790B2B0BDC04678130050AD
:102F700010130050F0B500230F4C104E1D460F04E7
:102F80000DD0491E2788BF07FCD5C75C37805B1C66
:102F90006D1C278A002FF2D01C3C208807E0208877
:102FA0004007FCD520884006FCD400271D46002A97
:102FB00000D01780A8B2F0BD70130050101300505D
:102FC000B0B5064C0025A5812181054961632146E4
:102FD00024310DC1034804490180B0BD4C8DFC076C
:102FE000ED2FFC073013005006020000F8B5044630
:102FF00080070F4D03D5002000F0BCF8288F0D4A44
:103000009089536A11890C4E378BBF0606D08842CF
:1030100004D22F881F54401C9081F5E7A20502D4EA
:10302000884200D0F8BD012000F0A4F83088F8BD37
:10303000101300504C8DFC0760130050B0B5074CC6
:103040000025A5802180214614310DC1044860630C
:103050000448818C04490180B0BDC0464C8DFC07FA
:103060006D30FC0730130050E6020000B0B5044696
:1030700040061F4D03D5002000F064F82888A00703
:1030800004D5002000F05EF81A48008F200616D400
:10309000A0051CD4A00625D5164C174803888188A6
:1030A000994220D24269994220D2AB8B9B071DD511
:1030B0004B1C8380515C218003888188F3E70E4894
:1030C00001888088411A484248412C1D07E00A487F
:1030D00001888088411A484248410C352C4600F04E
:1030E00031F82088B0BD40340020F8E74034F8E7DC
:1030F00054130050101300504C8DFC07044800215D
:103100000180044841630448102101607047C046B3
:10311000301300504C8DFC0780E200E080B506487B
:10312000416B06480088002901D0884780BD0448CB
:103130001021016080BDC0464C8DFC072C1300504F
:1031400080E200E080B50246074800210180074880
:1031500041634161064910230B608369002B02D053
:103160008188C069984780BD301300504C8DFC07A2
:1031700080E200E080B50246074800210180074850
:1031800041634162064910230B60836A002B02D021
:103190008189C06A984780BD301300504C8DFC0770
:1031A00080E200E007490A8808239A430378DB009D
:1031B00013430B800A8804239A434078800010430D
:1031C000088070472234005080B5024608461146F8
:1031D0005BF718FF401E0149088080BD083400508D
:1031E000F8B505464078652801D300BE6878204EC2
:1031F00031884F1C784364215BF704FF0446A878AC
:10320000652801D300BEA878784364215BF7FAFEF5
:1032100029784B1E052B29D831460E31B21C9B0054
:1032200001A5EB589F46C0466732FC074132FC07B8
:103230004F32FC075732FC074732FC075F32FC076E
:10324000321D103605E0314616310A360AE0B21D4D
:103250001236314607E031461431083602E0314675
:1032600018310C363246108000190880F8BDC0466F
:1032700008340050F8B50F4FBC682046FDF7FEFA41
:103280000D490A6800230B6016180C4D304629467C
:103290005BF7B8FE78610A494143881901D0281AC2
:1032A00080B23861386808210143396005480460FC
:1032B000F8BDC04630000040888DFC077102000058
:1032C0008FFDFFFF948DFC0710B5FDF7C5FF0C487F
:1032D00001884907FCD4FDF7CAFF0A4800880A495B
:1032E00008800A480088801E094C608007202080E2
:1032F000FDF7B2FF20884007FCD400F00BF810BDAA
:1033000008330050D08BFC0702000050048CFC07EF
:103310000016005080B5FDF7AAFF0F4841888907C5
:1033200003D04188032291434180018880220A43CF
:103330000280018904229143018181898907FCD59A
:1033400000F0BCF805480168490700D500BE0168D7
:103350004907FCD580BDC046080000501000004061
:10336000FEB53A480168C90703D0016802220A4342
:10337000026001230168490203D5990502680A43E6
:1033800002601D0202935E02314F019638460838F2
:103390000468002C59D0200606D5802038604AF7F2
:1033A00076FA1E20FDF7E2F9A00703D50220386067
:1033B00046F76BF920070BD50820386003F0C4F9F5
:1033C000002046F71BF904202349087000F0E2FEB4
:1033D0002C4203D03D60012046F710F9344202D060
:1033E0003E604AF7BDFA600603D54020386046F7D4
:1033F00000F9E00603D51020386044F7BDFC6007F3
:1034000010D504203860134A108802998843108030
:103410005AF75AF83FF714F91E20FDF7A7F90020D4
:103420000D490870E0070AD02E46029D3D605AF70C
:1034300067F84AF72CFA084805703546019EA00641
:10344000A4D52020386000BEA0E7FEBD00020040E9
:103450001800004008330050858DFC077047704706
:10346000B0B5D54C201F0588280701D5FFF7F6FF1A
:10347000E80708D0208807218843084909780143D4
:103480002180FFF7ECFF680706D5208807218843D5
:103490000349097801432180B0BDC046848DFC07F3
:1034A000998DFC0780B53EF710FF0248006802497D
:1034B000086080BD080200408C8DFC0780B53EF797
:1034C00030FF024800680249086080BD8C8DFC070F
:1034D00008020040FEB55C4E3068806A0290FDF73D
:1034E000C7F8002803D159480079022801D10020EB
:1034F0000290574D28880024C00700D0A1E059F75A
:1035000048F8002800D19CE0504FF87801240128A9
:1035100000D096E0FB4880890421C00700D08FE0EE
:103520003888002800D08CE00191FDF7A1F8002830
:1035300006D14848806A002802D03068806A02902C
:10354000FDF754F9B97802A859F71BFE002878D086
:10355000414E3068400674D4B97802A84AF7EEFAB2
:1035600000286ED00120FDF78DFE0298002806D0BD
:1035700031693A4A8918DA2901D8401E0290384840
:103580000088384909680A1837480260F26A374BE0
:1035900013400B43F362F16A354A0A40354C216807
:1035A00089021143F162F16A334A0A40006840051A
:1035B0008018F062029A3148824200D300BE30493E
:1035C0008868C96800235BF747FD0903000D4118AF
:1035D0002068821C8A4200D0481E2A490860397936
:1035E0004A1E914146F7C0F92748C06A8047FDF757
:1035F000EDF90446002801D0FDF72EFE306A0004E4
:10360000FCD5A84E3068C005FCD530688027B8438B
:103610003060002C01D0FDF72AFE6888452804D8C8
:1036200046216980081A19490860FFF73BFF306896
:103630000006FCD5B3490888B8430880019C00E027
:103640000C462046FEBDC04658B9FC0754BAFC07DC
:103650000833005074BEFC0710000040C8FEFFFF96
:10366000048CFC07147FFC075480FC0700FCFFFF60
:10367000FF03E0FF187FFC07FFFF1F0040420F0021
:10368000188CFC07908DFC0758BFFC07888DFC0741
:10369000002070477047C046F0B58BB03021002540
:1036A00045543949394A3A4B43613A4B3A4C3B4EBF
:1036B0003B4FC761046242628162C362394906605E
:1036C000416000F0F9FC1F20000437490A6882437A
:1036D0000124600410180860E00434490A68824339
:1036E0000A60282D03D001A845556D1CF9E7304824
:1036F0000068403001A928225BF7FEFC092000F099
:1037000051FD00F05BFD002802D0012000F04AFDD1
:1037100000F034FDFDF73CFDFDF76CFD00F046F9CF
:1037200000F08CF800F0A2F800F0C2FC2148047010
:103730002149098807220A40427003F013FA00F079
:103740001FF900F0E1F81D490B881D4804681D4A67
:103750001440E31803601C4B1C88856915402C1924
:1037600084615B88C4691440E318C3614B8A046AAE
:103770001440E3180362898A436A1340591841626E
:1037800000F008FD0BB0F0BD9536FC079136FC0744
:10379000CD37FC07F137FC071338FC071138FC075D
:1037A0001738FC071538FC07740000400002004081
:1037B0004CB9FC07988DFC07B81000401030004051
:1037C00088A0FC070000FFFF6430004080B502299C
:1037D00002D0012900D000BE002802D0FF2804D06A
:1037E00000BE022901D10C2080BD00F0E1FC80BDAB
:1037F0000548016807220A4302600120800403494A
:103800000A6882430A6070473000004000020040AE
:1038100070477047704780B5E62800D3E620282817
:1038200000D82820F9214A0042437D20C1001046DB
:103830005BF7E8FB7F38C0B280BDC04618B50848CA
:10384000016800910099074A009B1A40FF24240454
:103850000C40D9B20919044BC9181143016018BDB5
:103860008000004000FF00FF0A000A0080B502202F
:10387000FDF708FD012148050A4A136883431360D8
:103880008807002242671F221204436F93434904B2
:10389000591841670168E0220A4310218A430260F7
:1038A00080BDC0460002004080B51F2000040121F9
:1038B0008A07536F8343480418185067106807211C
:1038C000884310600F48018808220A43028000F0F4
:1038D00075FC002802D0012000F064FC00F04EFCD2
:1038E000FDF756FCFDF786FC00F060F8FFF7A6FF39
:1038F000FFF7BCFF00F008F800F04CFC052003F0D7
:1039000059F980BD0800005010B507480188074AE2
:103910001368074C234059181160408851682140B2
:103920000818506010BDC0463830004098A0FC0711
:103930000000FFFF10B504460548064970225BF7FA
:10394000DBFB0548001B054908801430488010BD8A
:1039500070A0FC073470FC07B8A0FFFF78A0FC073C
:1039600080B500F00BFCFDF745FC00F01FF8FFF7F9
:1039700065FF03F0F7F800F003F800F00BFC80BDE2
:1039800010B507480188074A1368074C23405918A7
:1039900011604088516821400818506010BDC04631
:1039A000183000408CA0FC070000FFFFFCB57F2012
:1039B0000002594A516981430B20000208185061E6
:1039C000106880B25549401810609069544C04400A
:1039D00001235803009020189061032001900002F9
:1039E000146B04431463908F1024044394879088CD
:1039F000184390804B484C4A02604C4A104610389D
:103A00004B4DAC8B044015204301E0185030A88387
:103A10006869484C0440484820186861A869474CC8
:103A20000440092040022018A8612868444C044042
:103A30004448201828606868434C044043482018D4
:103A40006860A868424C044042482018A860E868B2
:103A5000414C044041482018E860C1204001404CDE
:103A60002478240620183F4C2060052080023E4F19
:103A70003880401DB880388C55260643AA208643DE
:103A80003E84FF266C363046C930388537490846B3
:103A90000E30B88536483886B986C01D3887354817
:103AA0002885A86B3449014034480818A863344D70
:103AB0002E80288F10401F462037C0192887314894
:103AC000018811408919D531018081881140C918B8
:103AD000818001891140C91901812136AE802A48AF
:103AE00001881140C91860310180818A19220A4376
:103AF00006218A438282A08F244901400098081839
:103B0000A08723480168019A114304229143016070
:103B100020486066FCBDC046203000400000888818
:103B2000FF00FEFF8000004059055C071FFCFFFFFF
:103B3000042000400000E0FF09581A00FEE1FFFFEA
:103B4000E0E000000809294900000303696A686C85
:103B5000031FFFFF70600000E0E0E0E00B0A0A08CE
:103B60009C8DFC070010004028130040260A00002E
:103B700051080000070F00002F64E0FE101A060134
:103B8000001200404412004088120040FF9F0000D5
:103B90008010004050015001F0B589B032490868EA
:103BA0000790886C0690C86C0590304C206808908F
:103BB0002F4E306A04902F4A106803902E4B1868DD
:103BC0000190306802902D48006800901868012725
:103BD00038431860B77100258D64CD642848206093
:103BE0002068022101432160F8032168814321609C
:103BF000B80321680143216003200002216881434A
:103C00007802081820601560756203F00EF8306ABB
:103C1000800728460FD4306A3843306203F00AF830
:103C2000306AC007284606D003F00EF8306AC00795
:103C3000284600D1384675620B49079A0A60069AF1
:103C40008A64059ACA64049931620A49039A0A602F
:103C50000949019A0A60089921600299316007496F
:103C6000009A0A6009B0F0BD081200402820004008
:103C70000010004094120040A810004000300040A6
:103C800094A4F800FEB53E48032101700C46064698
:103C90003C4D28461438016814220A436B218A439C
:103CA000026000F08DF8432028713748804737487C
:103CB000804737488047347026463648046836487F
:103CC000804736488047286835490840E105401854
:103CD00028602868334A1040490C40182860412069
:103CE00001902871686830490840012102918F02D3
:103CF000C01968602448804724488047244880478A
:103D00001F4806702348046823488047234880479B
:103D1000286823490840E105401828602868214C9C
:103D20002040490C401828600198287168681E4995
:103D30000840C019686014488047144880471448F8
:103D400080470F480670134800682968144A1140DC
:103D5000C2058918296029682140144E0640B00127
:103D6000081828606868029CA043686000F0BCF8EE
:103D700009488047094880470D4846812046FEBDD6
:103D80000510004018300040393EFC074D3EFC074E
:103D90003F6CFC07883000408D3EFC072B6CFC0715
:103DA000FFFF7F003F80FFFFFFF9FFFFFF010000E3
:103DB0001E7FFC0701480321017070470510004079
:103DC00010B51848816A184A11600021C943816200
:103DD00002683F218A4302600123DA0304689443A6
:103DE000046003225202446894439B02E318436038
:103DF000436840241C4330239C4344600B06846981
:103E00009C430B235B06E3188361890183698B4321
:103E100099188161816918220A4327218A438261A6
:103E200010BDC046183000404880FC0701484321BF
:103E3000017070471C30004080B5034802210170BA
:103E400002F0EEFE80BDC0460610004080B50B4873
:103E500001688905C90E0A4A11701F2149010268CB
:103E60008A43026007480121017007480168032264
:103E70000A43026002F0DEFE80BDC0464C120040E4
:103E8000E879FC0706100040AC10004080B50848F7
:103E90000021016002F0CEFE064800781F21490192
:103EA000054A13688B43C006800DC018106080BDA2
:103EB000AC100040E879FC074C1200400548412155
:103EC00001700321490202688A43012189025118C5
:103ED000016070471C300040024801680122914394
:103EE000016070471C30004012480168124881622E
:103EF00001681C220A4323218A4302600121C9036D
:103F000002688A4302603F210A06836993430722BD
:103F100092069A188261890182698A430F21C90138
:103F20005118816181691E220A4321218A438261DD
:103F30007047C0464880FC0718300040F0B585B097
:103F4000554803240470554D2868142101436B2003
:103F500081432960FFF77AFF02F071FEEA6FE96F93
:103F6000E86F2B6D1E26B3431207D20E9A182A65EE
:103F7000072252022B6D934370220A4051015918B7
:103F800029653F214904800208402A6D8A431018A0
:103F90002865286D424908406107401828650227B6
:103FA000F9430191E86C0840E864E86C012420437F
:103FB000E864286D2043286521020491286D084398
:103FC000286521040391286D084328653548401C65
:103FD000296D01432965286C40210291084328641A
:103FE000286C1F2101432964E86C3843E86402F01F
:103FF0002BFEAE6F2C488682E86C01990840E8647D
:10400000286D274908400521490740182865E86CB4
:104010003843E86402F018FEA86F2349C88221499A
:104020000E400840311A21485AF7ECFF1E4F3883E2
:10403000E143EA6C0A40EA642A6D0A402A65296D68
:10404000049A91432965296D039A91432965E105F5
:104050002A6D8A432A65296C029A91432964C10515
:10406000C90FC8407F220240C8011018C61CFFF7C4
:104070000DFF02F0DAFD7E70F0B2E968FF22914395
:104080000918E96000021102EA688A431018E86022
:10409000204605B0F0BDC046051000400430004089
:1040A000FFFFFF00FFFF7F001E7FFC0740E00000D6
:1040B00080B5FFF7E7FD80BD7047704701480821D4
:1040C00001707047041000400248016802220A4350
:1040D0000260704724300040044800210170C26A29
:1040E000034B1A60C943C1627047C0461430004098
:1040F0004880FC07034800680349C8620A2008702A
:104100007047C0464880FC0714300040012041073A
:10411000044A13688B4313600007116881431160E0
:104120007047C046143000401348016808220A4313
:104130000260016880220A4302600121CA0203680A
:10414000134303604A070368134303600A070368C5
:1041500093430360CA060368134303608A06036837
:10416000934303604A060368134303600906026829
:104170008A4302607047C046B810004010B5044C36
:1041800008202070112002F069FD0320607010BD2E
:104190000410004002480221817000210180704714
:1041A00004100040014908707047C0469C8DFC0710
:1041B000014800787047C0469C8DFC070148407854
:1041C0007047C0469C8DFC0705484178002906D100
:1041D00001214170034909680901090F41607047D5
:1041E0009C8DFC070010004004484178012903D150
:1041F00000214170416801707047C0469C8DFC07EA
:10420000F0B589B0039316460C46FD205CF7F0FF2D
:104210000290002800D100BE08A900270F70208856
:104220005EF712F905466088002800D000BE002D18
:1042300078D1FD2001F072FB002800D100BE039967
:10424000090A009108A90A781421514343685918B2
:104250000B79022B24D109680988394B99421FD167
:1042600000200590049020885EF789F8002800D18E
:1042700000BE07A9002204AB4CF776FE01204002E5
:1042800007990140480A21465EF764F8C5B2002D3F
:1042900029D1E28808A8017800985EF736FA22E072
:1042A00001968669002E3D4606D0A5886188A31D2B
:1042B00010462A46B047054605970497208804A96A
:1042C0004CF7CDFB002D019E0DD108200499085E0E
:1042D000002807D46288A1882088A31D4CF729FCF8
:1042E000054600E00025002D1CD10298009F3946AC
:1042F0005CF79CFF0146A088801D83B211483246BE
:1043000058F778FB0546801DA288A11D5AF7F4FED8
:1043100008A800786880A088A8802F70284658F7E1
:1043200084FB0025084804230399324658F762FBB2
:1043300085702188018058F778FB002009B0F0BD16
:10434000022900000AFD0000160C000070B514469A
:104350000D46104658F794FD01282ED12878010209
:104360000831AA791648002A0CD089B206232246C1
:1043700058F740FB0646A8785EF758F83080A879D1
:10438000307113E0AA8889B2921D93B2224658F781
:1043900031FB0646A8785EF749F80021317130807C
:1043A000AA887280701DE91D5AF7A6FE304658F79C
:1043B0003CFB0021204658F74EFD002070BDC04652
:1043C000140C0000B0B50025164C002826D1012D94
:1043D00026D8FF20E082002020606060A060E060BE
:1043E000206110202843C0B2A082214658F701FD69
:1043F00018346D1CEBE7E08A5CF780FF002802D0E0
:104400004168204688470020E0816060A060FF206E
:10441000E082207D58F747FD18346D1C012DEAD944
:10442000B0BDC046A48DFC07F8B5044600260A4F6F
:10443000302E0FD0BD19E88AFD2801D107496960E7
:104440005CF75CFF002803D082682846214690472D
:104450001836EDE7F8BDC046A48DFC076C74FC0768
:1044600080B500F02FFA80BD80B500F003FE5FF745
:104470003FF90120FCF770F880BDC04680B50C21E3
:104480004143054A51188978FF2902D000F0B6F956
:1044900080BD00F017FA80BD008EFC0780B500F0EB
:1044A00011FA80BD80B55FF70BF8002801D000F04D
:1044B00009FA80BD80B500F005FA80BD80B50449D9
:1044C0000A780270401C491C5AF716FE80BDC0468F
:1044D0000C8EFC070149498C018070470C8EFC074B
:1044E0007D21C1800021818010214180082101802F
:1044F0007047C04610B50C46017801290BD0002941
:104500000ED1428808490A704B1C011DD2B21846D0
:104510005AF7F2FD02E0408803494884002000E099
:104520004820207010BDC0460C8EFC0700208880FB
:10453000488001200870704710B5044640793F2834
:104540000FD83EF7DCF92070010EE170010CA1706C
:10455000000A60703EF7D3F92071000AC0210143C0
:10456000617110BDFEB50190FEF75AF90220FEF709
:10457000A7F91748416802910468FEF7ADFA0025D3
:104580002F462E462E2D0FD0029821462A465EF742
:1045900056FF012108400FA14A5D00215AF7F0FDA6
:1045A0000E4307436D1CEDE70024019D302C08D01D
:1045B0003846314622465EF742FF287008346D1CAB
:1045C000F4E7019A5079C02101435171FEBDC04604
:1045D000E47FF8071F171C09080E11161407181D91
:1045E0001E271B1506010400232A290A12250B2267
:1045F000281A2D0F2C20210213242B030D05192618
:10460000100C000080B500F093FE80BDF0B585B0C1
:104610004A78032A16D8C0467A4412795200974441
:104620000601010C0849019101A9042207E007A233
:1046300001A90B46F0CAF0C300E0891C1022012337
:1046400000F0A0FE05B0F0BD40E201000001020351
:104650000405060708090A0B0C0D0E0F80B500F0C3
:10466000DDFE80BD10B50446497800F0E7FB20462A
:1046700000F00EFF204600F0FDFE10BDBCB5044664
:104680000C2060432A4A1518E87A002815D000202B
:10469000019000907A206043264A125C012010406D
:1046A0000A88002A06D100283ED0881C69460822C4
:1046B0005AF746FD002837D12DE00888002802D09F
:1046C000002002221BE06879A97909020818E9791B
:1046D00009042A7A120651180918687AAA7A12026D
:1046E0001218287901F054F901460320022903D356
:1046F00015D0042901D017E00120691D062200F021
:10470000C3FF002810D001467A2220465043094BAF
:1047100018185AF7F1FC204600F068FFBCBD20468F
:1047200000F085FF0028F9D1204600F075FFBCBDE0
:10473000008EFC07328EFC0780B57A214143044885
:1047400040187821415CC90701D000F09BFF80BD73
:10475000328EFC0710B50446891D0220102200F09D
:1047600093FF00280BD001467A2220465043064B87
:1047700018185AF7C1FC204600F038FF10BD20463B
:1047800000F04AFF10BDC046328EFC0780B500F035
:1047900043FF80BD0178242903D14078972800D1B8
:1047A00000BE704710B512480178124ACCB20C23F3
:1047B0006343D45CFF2C06D0D318491C01705B689E
:1047C000002BF3D00DE041780B4ACCB21C2363439D
:1047D000D45CFF2C08D0D318491C4170DB68002B37
:1047E000F3D09847002010BD00210180012010BDAA
:1047F000F88DFC071C75FC07B070FC0770B504460B
:104800000025084EE9B21C204843315CFF2907D03F
:1048100030180169002901D0204688476D1CF1E756
:1048200070BDC046B070FC07B0B50B4D0024AC6045
:10483000EC602C6116222A752846153007495AF774
:104840005BFCEC8604250649284658F7D2FA284630
:10485000214658F700FBB0BDF88DFC070479FC0732
:10486000586FFC0780B500F001F880BD10B5114C01
:104870002068002800D010BD0F48092104225223CF
:1048800058F7B8F802462B2000211154226091728B
:104890000A48D08090800D201080D172FF2008300F
:1048A000108110460B300C321621054B5EF732FE9C
:1048B000206810BDD48DFC070D0D00004C040000D5
:1048C0000479FC0780B5FFF7D1FF58F7AEF804482C
:1048D000002101600420022158F7BDFA80BDC046C6
:1048E000D48DFC0780B500F001F880BD70B5164E80
:1048F0003468002C26D1054614480921042252238D
:1049000058F778F8044630601148002D01D0014670
:1049100000E02021A1800721217200266670002D71
:1049200001D00F2100E00E212170002D01D10120C6
:104930008003E0802046093006A1093106225AF79B
:10494000DBFBE673204670BDD48DFC070D0D000027
:104950004C04000000004C044C0407010001020359
:104960000405060080B5FFF7C1FF58F75EF804485C
:10497000002101600420022158F76DFA80BDC04675
:10498000D48DFC0780B500F001F880BD10B5114C46
:104990002068002800D010BD0F48092104225223AE
:1049A00058F728F802462B20002111542260D172BA
:1049B0009172FF20083010810848D08090800C2030
:1049C000108010460B300C321621054B5EF7A2FD0D
:1049D000206810BDD48DFC070D0D00004C040000B4
:1049E0000479FC0780B5FFF7D1FF58F71EF8064899
:1049F00000210160042058F743FA032803D0042063
:104A0000022158F728FA80BDD48DFC0770B50D46F9
:104A10000446084EB078002801D000F0FBFE002DBF
:104A200000D075600449204600F0B4FEB070FFF776
:104A300049FF70BDF88DFC073D4AFC0780B55EF765
:104A4000BDFD0448002282704168002901D0426007
:104A5000884780BDF88DFC0710B5054CA07800286C
:104A600001D000F0D7FE00206060A07010BDC046ED
:104A7000F88DFC0780B500F001F880BD10B5014647
:104A8000002800D000BE8A000D4B9858002800D0A6
:104A900010BD9C1809020A310A4804220E2357F758
:104AA000A9FF0921017020601021818000218181EE
:104AB00041817D220281C1800821418010BDC04614
:104AC000D88DFC070E0E000010B50446FFF7D6FF88
:104AD00057F7ABFFA000024900220A5010BDC046A4
:104AE000D88DFC0780B500F001F880BD10B5104CE2
:104AF0002068002800D010BD0E48092104221D2383
:104B000057F778FF206001210175052141820021BE
:104B1000018281816421418101810B214901C18090
:104B2000132202800A469432C2812031818010BD56
:104B3000DC8DFC07110D0000F8B514460D46064645
:104B4000FFF7D4FF07460120387538461530062296
:104B500029465AF7D1FAFE767C813C81F8BDC046E1
:104B600080B5FFF7C3FF57F760FF024800210160DF
:104B700080BDC046DC8DFC0780B500F001F880BD2B
:104B8000B0B5104D2C68002C19D10F480921042212
:104B90002C2357F72FFF04462860172020840B484A
:104BA00020800025658020460A3011215AF7BDFA81
:104BB0002585E5846584E583A5832020E07620466D
:104BC000B0BDC046E08DFC07040D0000030A0000E4
:104BD00080B5FFF7D5FF57F728FF02480021016095
:104BE00080BDC046E08DFC0710B501020A310548C2
:104BF00004240123224657F7FDFE047057F715FFE2
:104C000010BDC046050E00001FB514460E220292CC
:104C1000044A0192069A00921A4623465EF768FB00
:104C200004B010BD706FFC0710B5104658F728F996
:104C3000002801D000BE09E0054809210422012412
:104C4000234657F7D7FE047057F7EFFE002010BD3C
:104C5000020D000070B50C78172C0FD80125A54067
:104C60000F4E354201D0002070BD012C0CD0032C1A
:104C700004D1487800280CD000BEF4E7094C246821
:104C8000002CF0D0A047EEE74878002804D000BE02
:104C9000E9E7FFF707FCE6E7FFF79AFFE3E7C0461F
:104CA00000F08E00AC70FC0710B50C78012C03D01E
:104CB000092C0CD04C7802E04C78432C02D0002C0C
:104CC00000D000BE034C2468002C00D0A047002078
:104CD00010BDC046AC70FC07F8B51D4610460C462A
:104CE00058F7CEF8022828D12D0A00D000BE0C209B
:104CF000684313490F18BD70FF2D19D00126FE70AF
:104D00000420032158F7A7F820883880607A38718A
:104D1000781D21460A3106225AF7EEF97A206843B7
:104D2000084908187821415C284632465EF7DCFBCA
:104D30002846214601F01CF800E000BE0020F8BD26
:104D4000008EFC07328EFC07B0B51D4610460C469F
:104D500058F796F803280AD1280A0C214143054840
:104D60004018FF214180204601F01AF800E000BE03
:104D70000020B0BD008EFC0770B58AB01D461446F9
:104D8000087802282CD001281AD0002843D16E467A
:104D9000212130465AF7C9F93046FFF78FFB3378A7
:104DA0000A331E482946224657F724FE04460020AF
:104DB000207032786280201D711C5AF79DF927E01F
:104DC000684600210180FFF785FB14480A23294625
:104DD000224657F70FFE012101700099418018E02B
:104DE0000020019000900D480A232946224657F7DB
:104DF00001FE04466D462846FFF772FB0220207034
:104E0000009860806888A0800198E080E888208110
:104E1000204657F70AFE00200AB070BD0B0E0000B6
:104E200080B53DF76CFD03495AF7ECF802480818C5
:104E300080BDC046A0BB0D00A0860100F8B50C46A1
:104E40007A2545430A4E77193977384614300821B8
:104E50000A4600F0A8FDB81C1022214600F0A3FD70
:104E60003DF74DFD715D01220A4372557882F8BD10
:104E7000328EFC07B0B57A2444437A4D281951305C
:104E800010210A4600F08FFD285D082101432955B5
:104E9000B0BDC0461FB5144607220292044A0192D3
:104EA000069A00921A4623465EF722FA04B010BD15
:104EB000FC6FFC0710B50A78072A23D8180A92005D
:104EC00001A39A589746C046E94EFC07054FFC07D8
:104ED000054FFC07054FFC07094FFC07134FFC0764
:104EE000134FFC070F4FFC077A2242430A4B002462
:104EF0009C540C224243094B9A180123D372FFF7AA
:104F000081FB06E000BE04E0FFF780FB01E0FFF755
:104F1000A9FB002010BDC046328EFC07008EFC07A6
:104F200070B50C78A51E052D24D81C0A7D442D795A
:104F30006D00AF4402331F2543517A2060433B4A42
:104F40001518887878216854C0070CD00C2060436D
:104F50003C490E18711D2846713006225AF7CCF8CC
:104F60003079772168540C206043364908180021B5
:104F7000C17243E0344C2468002C3FD0A0473DE090
:104F80007A256543294C60193A30891C17225AF753
:104F9000B3F8605D0421014361552FE07A2060433E
:104FA000224908187821002242540C2060432549E8
:104FB0000818C27220465EF7E3FA1FE07A256543BF
:104FC0001A4E70196130891C102422465AF794F841
:104FD000705D2043705511E07A206043134A151824
:104FE0008B1C488A00280BD028461E301C221946EC
:104FF0005AF782F82878022101432970002070BDF9
:10500000A81C1C2219465AF777F828780121014379
:10501000297007A05BF772FE112008A4461EEDD090
:10502000295C20465BF76AFE3046F7E7328EFC07C4
:10503000200D0A204C544B3A20307800253032782D
:1050400000000000008EFC07AC70FC0700207047D9
:10505000180A7A224243034880180978782281543A
:1050600000207047328EFC070020704700207047F8
:10507000002070477047C04670B50C4809210424D1
:105080000A23224657F7B6FC05461B202870142633
:1050900030465EF701FBFF21743129816C606E8020
:1050A0006870284657F7C1FC70BDC0461B0D000054
:1050B0001FB5144601220292044A0192069A0092F8
:1050C0001A4623465EF714F904B010BD686FFC075A
:1050D000F8B51F460C46087808281CD8072500217B
:1050E00000911AA6784400794000874419040C0402
:1050F00006060F0912001A4E12E00D25174E0FE09A
:10510000062514A60CE00A2516A609E008251AA60D
:1051100006E017A604E000BE0026012000903546F8
:10512000AB1C1848394657F765FC0746207838709D
:105130007D700098002804D1B81C31462A4659F7E2
:10514000DBFF384657F771FC0020F8BD52656E65ED
:1051500073617300FFEEDDCCBBAA00002C78FC0766
:105160003A78FC07312E302E302E302D4C45000081
:1051700001D2008005000100123456FFFE9ABCDE09
:105180000000000003140000074801880020090601
:1051900009D506490968090405D405480088012194
:1051A000014048424841704708000050300000402C
:1051B00054BAFC0710B50446FFF7E6FF002801D1FA
:1051C000FBF75CFA204657F730FC10BD0A4941183E
:1051D0008AB20021052A01D3CA4301E002460E3AF1
:1051E00052B2002A04D49100044A0023535070475D
:1051F00000BE08467047C046F2FBFFFFAC8EFC07BE
:1052000010B50022074B0849052A08D01C68002C5D
:1052100002D01B1D521CF7E718600448111888B211
:1052200010BDC046AC8EFC07FFFF00000E0400005E
:10523000094A821892B2052A02D30022D24301E021
:1052400002460E3A52B2002A03D49200044B9950FF
:10525000704700BE01487047F2FBFFFFFFFF0000F0
:10526000AC8EFC0710B50146054C2088002802D002
:10527000FFF7DEFF10BD0846FFF7C2FF208010BD1C
:10528000C08EFC0710B5034C2088FFF79FFF00205D
:10529000208010BDC08EFC0780B50448008800281F
:1052A00003D00421002257F7D6FB80BDC08EFC0737
:1052B00010B5014601200A4A914210D3121D9142B5
:1052C0000DD8029CF231C8B28100064A505800281D
:1052D00003D0511800220A6080470020207010BDC2
:1052E0000E040000AC8EFC0780B500F001F880BD14
:1052F00070B581000B4A5458002C11D15518010289
:105300000A31094804221E2357F774FB044601267C
:1053100006702860801C0549072259F7EDFE66706B
:10532000204670BDC48EFC07140E0000C079FC0737
:1053300010B50446FFF7DCFF57F777FBA0000249E2
:1053400000220A5010BDC046C48EFC0780B500F094
:1053500001F880BDB0B501468200084B985800287E
:1053600000D0B0BD9D1809020A31054804241E234F
:10537000224657F73FFB04702860B0BDC88EFC077B
:10538000140E0000FEB5029301920E460446FFF78C
:10539000E1FF0746A5000A484059841C1021204619
:1053A00059F7C3FE20463146019A59F7A5FE0298E7
:1053B0007870384657F739FB002001494851FEBD47
:1053C000C88EFC0780B500F001F880BDB0B504467A
:1053D00080000F490D58002D18D10D1821020A31F7
:1053E0000C4804221E2357F705FB83214900018046
:1053F00028602046FFF73EFD7A20604306490918E1
:1054000051312D68A81C102259F776FE2846B0BDF0
:10541000CC8EFC07140E0000328EFC0710B504463B
:10542000FFF7D4FF57F701FBA000024900220A5002
:1054300010BDC046CC8EFC0780B500F001F880BDE1
:1054400010B501468200094B9858002800D010BDC5
:105450009C1809020A31064804221E2357F7CAFA8B
:10546000FF2108310180206010BDC046D08EFC07AE
:10547000140E000010B50446FFF7E2FF57F7D5FA07
:10548000A000024900220A5010BDC046D08EFC0781
:10549000B0B57A2141430B4A5418FFF7D1FF217F61
:1054A0000177618A4182E18AA28A638B258B058319
:1054B00043838282C182A11C801C102259F71CFEEA
:1054C000B0BDC046328EFC07F8B51D4616460091A9
:1054D000FFF7B6FF06770699418229796A791202A9
:1054E0005218EC78AB78EE79AF7929786D78028331
:1054F0002A0251188182390432065118090C41835D
:10550000190422065118090CC182801C102200992E
:1055100059F7F2FDF8BDC04610B5044600F00AF890
:1055200057F783FAA000024900220A5010BDC04676
:10553000D48EFC0710B58200074B9958002909D179
:105540009C1801020A3105480422122357F752FA27
:1055500001462060084610BDD48EFC07180E0000DE
:1055600080B5FFF7E7FF80BD10B50446FFF7E2FF07
:10557000012101707A216143044A51180A7F427463
:10558000891C401C102259F7B7FD10BD328EFC0754
:1055900080B5FFF7CFFF0021017080BD10B5014637
:1055A0008200094B9858002800D010BD9C180902B1
:1055B0000A3106480422022357F71CFA00214170E1
:1055C0000C210170206010BDD88EFC071A0E00005F
:1055D00010B50446FFF7E2FF57F727FAA00002498B
:1055E00000220A5010BDC046D88EFC0710B50446F4
:1055F0007A206043074908187821415C012220463F
:105600005DF772FF2046FFF7AFFF2046FFF784FFEC
:1056100010BDC046328EFC0710B50446FFF7B8FF38
:105620002046FFF779FF20465DF7AAFF10BD002056
:105630007047002070470020704770B50C46054643
:10564000272803D028462138092800D300BE692026
:10565000400109210422292357F7CCF906460120ED
:1056600070703570212D06D0262D04D0B01C272255
:10567000214659F741FD304657F7D7F970BD7047BD
:105680000020704770477047002070470020704727
:1056900070470000B0B50C463749884231D0374AD0
:1056A00090421CD0364988423CD12078401E0928BF
:1056B00056D88000344A1158354B994252D033485D
:1056C000814253D12D48042108230A4657F792F905
:1056D000217801706168416057F7A7F946E02078AA
:1056E000411ECAB2092A39D88900274A5358274D82
:1056F000AB423BD151188A6A0A60616800F06CF8CD
:1057000034E06268002A01D100BE62681D4882420E
:1057100001D300BE6268207818494018042157F769
:10572000A8FC23E0531C0121984222D30A32904264
:105730001FD8C1B2091F8A00134B9958002915D0F0
:10574000124CA14212D0124CA1420FD09A18C01E86
:10575000002313609362C0B2884707E000BE05E0F3
:1057600000BE03E01018002101608162049800214E
:1057700001700846B0BDC0460104000003040000EB
:1057800002040000FDFF3F00DC8EFC07E958FC0727
:105790006D58FC07B0B50246002804D00C48824280
:1057A00002D300BE00E000BE00240A4823460A2BB4
:1057B0000BD00568002D02D0001D5B1CF7E70160CF
:1057C0005C1CE0B2114600F007F8E0B2B0BDC04684
:1057D000FDFF3F00DC8EFC0770B50C4605460C4E05
:1057E000FFF7D2FC002806D07019801C0421224645
:1057F00057F73FFC70BDFAF741FF042108233046FC
:105800000A4657F7F7F84460057057F70EF970BD70
:1058100001040000F8B50446401E09281BD8A0006A
:105820000F494018071F3868002816D00D4DA842B0
:1058300013D00D482018401C0426314657F763FC4E
:105840003D60082308483146324657F7D3F80470C4
:1058500057F7EBF8F8BD00BEF8BD00BEF8BDC04676
:10586000DC8EFC076D58FC07020400007047C04640
:10587000F8B50D460446002904D01748854202D3E6
:1058800000BE00E000BE601E09281ED8800013493B
:105890000A58002A1BD0124B9A4218D00E181148F1
:1058A0002018401C0427394657F72DFC3068B06299
:1058B0000B48306008230B4839463A4657F79AF8A8
:1058C0004560047057F7B1F803E000BE00E000BE89
:1058D00000242046F8BDC046FDFF3F00DC8EFC07DB
:1058E000E958FC07020400007047C04670B5002468
:1058F000084D094E0A2C0BD02868002805D0B0426C
:1059000003D0601CC0B2FFF785FF2D1D641CF1E7BA
:1059100070BDC046DC8EFC076D58FC07014605488B
:105920001C38027FFF2A03D01C308A42F9D170470D
:1059300000207047B070FC077047C04670B50C4837
:10594000092104241823224657F754F805461B2042
:105950002870FD2630465DF79FFE0021A982E96090
:1059600029616C606E806870284657F75EF870BDDC
:105970001B0D00001FB51446002202920192069AE8
:1059800000921A4623465DF7B3FC04B010BD000038
:1059900080B5FE230340022B01D1042080BD92B2CA
:1059A0005DF7C8FC80BD80B58A4201D35DF7D8FCA5
:1059B00080BD0000FEB54F4842690020C743012466
:1059C000002A264600D03E4670014B490B6803432F
:1059D0004D680B600196F60E002A3B4600D1134637
:1059E000580180192843486042484268002A2646E8
:1059F00000D03E46F50F002A3B4600D11346580022
:105A000040194A68024308684A60009672000243DF
:105A10000A603848026A002A204600D038460290C0
:105A2000050E002A3E463B4600D113461802401997
:105A30004A68024308684A60029A120202430A60F6
:105A40002C48426A002A274600D03746FD0D002A1E
:105A5000334600D11346580240194A680243086889
:105A60004A607A0202430A6022488569002D224674
:105A700000D03246930E002D304600D128468001DA
:105A8000C0184B68034308684B60930103430B60E5
:105A90001848009B4360029B03624762019B43617D
:105AA0008261C569002D2246374600D03A46D001B2
:105AB0000B6803434E680B60530E002D384600D12F
:105AC0002846C001C018304348600A48C261C26A13
:105AD000002A00D03C46C462E0020D6805434B68D2
:105AE0000D60640D002A00D11746F8020019184312
:105AF0004860FEBDC08CFC07B88CFC07F8B50126D9
:105B000000960320040200251D23154F2846314628
:105B10002246B84700950521042328462246B84767
:105B20000095082128462A462B46B84700960921A9
:105B3000284622462B46B847009506210F232846C3
